{
  "_format": "hh-sol-artifact-1",
  "contractName": "EvidenceRegistry",
  "sourceName": "contracts/EvidenceRegistry.sol",
  "abi": [
    {
      "anonymous": false,
      "inputs": [
        {
          "indexed": false,
          "internalType": "string",
          "name": "caseId",
          "type": "string"
        },
        {
          "indexed": false,
          "internalType": "uint256",
          "name": "score",
          "type": "uint256"
        }
      ],
      "name": "AuthenticityStored",
      "type": "event"
    },
    {
      "anonymous": false,
      "inputs": [
        {
          "indexed": false,
          "internalType": "string",
          "name": "caseId",
          "type": "string"
        },
        {
          "indexed": false,
          "internalType": "address",
          "name": "authority",
          "type": "address"
        }
      ],
      "name": "AuthorityApproved",
      "type": "event"
    },
    {
      "anonymous": false,
      "inputs": [
        {
          "indexed": false,
          "internalType": "string",
          "name": "caseId",
          "type": "string"
        },
        {
          "indexed": false,
          "internalType": "string",
          "name": "cid",
          "type": "string"
        },
        {
          "indexed": false,
          "internalType": "string",
          "name": "fileHash",
          "type": "string"
        },
        {
          "indexed": false,
          "internalType": "string",
          "name": "anonId",
          "type": "string"
        },
        {
          "indexed": false,
          "internalType": "string",
          "name": "revealMode",
          "type": "string"
        }
      ],
      "name": "CaseRegistered",
      "type": "event"
    },
    {
      "anonymous": false,
      "inputs": [
        {
          "indexed": false,
          "internalType": "string",
          "name": "anonId",
          "type": "string"
        },
        {
          "indexed": false,
          "internalType": "uint256",
          "name": "score",
          "type": "uint256"
        }
      ],
      "name": "ReputationUpdated",
      "type": "event"
    },
    {
      "anonymous": false,
      "inputs": [
        {
          "indexed": false,
          "internalType": "string",
          "name": "caseId",
          "type": "string"
        }
      ],
      "name": "RevealTriggered",
      "type": "event"
    },
    {
      "inputs": [
        {
          "internalType": "string",
          "name": "",
          "type": "string"
        }
      ],
      "name": "cases",
      "outputs": [
        {
          "internalType": "string",
          "name": "ipfsCid",
          "type": "string"
        },
        {
          "internalType": "string",
          "name": "fileHash",
          "type": "string"
        },
        {
          "internalType": "string",
          "name": "anonId",
          "type": "string"
        },
        {
          "internalType": "string",
          "name": "zkCategory",
          "type": "string"
        },
        {
          "internalType": "uint256",
          "name": "authenticityScore",
          "type": "uint256"
        },
        {
          "internalType": "string",
          "name": "revealMode",
          "type": "string"
        },
        {
          "internalType": "uint256",
          "name": "timestamp",
          "type": "uint256"
        },
        {
          "internalType": "uint256",
          "name": "revealUnlockTime",
          "type": "uint256"
        },
        {
          "internalType": "bool",
          "name": "revealed",
          "type": "bool"
        }
      ],
      "stateMutability": "view",
      "type": "function"
    },
    {
      "inputs": [
        {
          "internalType": "string",
          "name": "caseId",
          "type": "string"
        }
      ],
      "name": "logAuthorityApproval",
      "outputs": [],
      "stateMutability": "nonpayable",
      "type": "function"
    },
    {
      "inputs": [
        {
          "internalType": "string",
          "name": "caseId",
          "type": "string"
        },
        {
          "internalType": "string",
          "name": "cid",
          "type": "string"
        },
        {
          "internalType": "string",
          "name": "fileHash",
          "type": "string"
        },
        {
          "internalType": "string",
          "name": "anonId",
          "type": "string"
        },
        {
          "internalType": "string",
          "name": "revealMode",
          "type": "string"
        },
        {
          "internalType": "uint256",
          "name": "revealUnlockTime",
          "type": "uint256"
        },
        {
          "internalType": "string",
          "name": "zkCategory",
          "type": "string"
        }
      ],
      "name": "registerCase",
      "outputs": [],
      "stateMutability": "nonpayable",
      "type": "function"
    },
    {
      "inputs": [
        {
          "internalType": "string",
          "name": "",
          "type": "string"
        }
      ],
      "name": "reputationScore",
      "outputs": [
        {
          "internalType": "uint256",
          "name": "",
          "type": "uint256"
        }
      ],
      "stateMutability": "view",
      "type": "function"
    },
    {
      "inputs": [
        {
          "internalType": "string",
          "name": "caseId",
          "type": "string"
        },
        {
          "internalType": "uint256",
          "name": "score",
          "type": "uint256"
        }
      ],
      "name": "storeAuthenticityScore",
      "outputs": [],
      "stateMutability": "nonpayable",
      "type": "function"
    },
    {
      "inputs": [
        {
          "internalType": "string",
          "name": "caseId",
          "type": "string"
        }
      ],
      "name": "triggerReveal",
      "outputs": [],
      "stateMutability": "nonpayable",
      "type": "function"
    },
    {
      "inputs": [
        {
          "internalType": "string",
          "name": "anonId",
          "type": "string"
        },
        {
          "internalType": "uint256",
          "name": "value",
          "type": "uint256"
        }
      ],
      "name": "updateReputation",
      "outputs": [],
      "stateMutability": "nonpayable",
      "type": "function"
    }
  ],
  "bytecode": "0x608060405234801561001057600080fd5b506111b0806100206000396000f3fe608060405234801561001057600080fd5b506004361061007d5760003560e01c8063d50fd07a1161005b578063d50fd07a146100ea578063df96582914610106578063e4fe33e91461013e578063ed72be6c1461015a5761007d565b806327b1619e14610082578063b31c54ac146100b2578063c31dbffa146100ce575b600080fd5b61009c60048036038101906100979190610914565b610176565b6040516100a99190610976565b60405180910390f35b6100cc60048036038101906100c79190610914565b6101a4565b005b6100e860048036038101906100e391906109bd565b6101e0565b005b61010460048036038101906100ff9190610b07565b61033a565b005b610120600480360381019061011b9190610914565b61039d565b60405161013599989796959493929190610bfd565b60405180910390f35b61015860048036038101906101539190610b07565b6106b6565b005b610174600480360381019061016f9190610914565b610746565b005b6001818051602081018201805184825260208301602085012081835280955050505050506000915090505481565b7f180af40580a444fc1cc61da74e35230cf4810c2eaa0d2ac27b9bc248a1d2410081336040516101d5929190610cee565b60405180910390a150565b60405180610120016040528087815260200186815260200185815260200182815260200160008152602001848152602001428152602001838152602001600015158152506000886040516102349190610d5a565b908152602001604051809103902060008201518160000190816102579190610f7d565b50602082015181600101908161026d9190610f7d565b5060408201518160020190816102839190610f7d565b5060608201518160030190816102999190610f7d565b506080820151816004015560a08201518160050190816102b99190610f7d565b5060c0820151816006015560e082015181600701556101008201518160080160006101000a81548160ff0219169083151502179055509050507f3fd8ff502d4d963be1cc5ee82c09fc58a150546c585578d2bedc31f226e9c735878787878760405161032995949392919061104f565b60405180910390a150505050505050565b8060008360405161034b9190610d5a565b9081526020016040518091039020600401819055507f5208695da272aecfacbde57e0e7623d5e5434e16656f820cf4a254377b699a2382826040516103919291906110c5565b60405180910390a15050565b6000818051602081018201805184825260208301602085012081835280955050505050506000915090508060000180546103d690610da0565b80601f016020809104026020016040519081016040528092919081815260200182805461040290610da0565b801561044f5780601f106104245761010080835404028352916020019161044f565b820191906000526020600020905b81548152906001019060200180831161043257829003601f168201915b50505050509080600101805461046490610da0565b80601f016020809104026020016040519081016040528092919081815260200182805461049090610da0565b80156104dd5780601f106104b2576101008083540402835291602001916104dd565b820191906000526020600020905b8154815290600101906020018083116104c057829003601f168201915b5050505050908060020180546104f290610da0565b80601f016020809104026020016040519081016040528092919081815260200182805461051e90610da0565b801561056b5780601f106105405761010080835404028352916020019161056b565b820191906000526020600020905b81548152906001019060200180831161054e57829003601f168201915b50505050509080600301805461058090610da0565b80601f01602080910402602001604051908101604052809291908181526020018280546105ac90610da0565b80156105f95780601f106105ce576101008083540402835291602001916105f9565b820191906000526020600020905b8154815290600101906020018083116105dc57829003601f168201915b50505050509080600401549080600501805461061490610da0565b80601f016020809104026020016040519081016040528092919081815260200182805461064090610da0565b801561068d5780601f106106625761010080835404028352916020019161068d565b820191906000526020600020905b81548152906001019060200180831161067057829003601f168201915b5050505050908060060154908060070154908060080160009054906101000a900460ff16905089565b806001836040516106c79190610d5a565b908152602001604051809103902060008282546106e49190611124565b925050819055507f9a1da23587dcd4b8f3cf09c85accf932eccfcf4a2bb2a823982265b1522ade0c8260018460405161071d9190610d5a565b90815260200160405180910390205460405161073a9291906110c5565b60405180910390a15050565b60016000826040516107589190610d5a565b908152602001604051809103902060080160006101000a81548160ff0219169083151502179055507f624e6402193ab39d145258016c2774afd4b94af7f3f3cc0c5f82a72701691b81816040516107af9190611158565b60405180910390a150565b6000604051905090565b600080fd5b600080fd5b600080fd5b600080fd5b6000601f19601f8301169050919050565b7f4e487b7100000000000000000000000000000000000000000000000000000000600052604160045260246000fd5b610821826107d8565b810181811067ffffffffffffffff821117156108405761083f6107e9565b5b80604052505050565b60006108536107ba565b905061085f8282610818565b919050565b600067ffffffffffffffff82111561087f5761087e6107e9565b5b610888826107d8565b9050602081019050919050565b82818337600083830152505050565b60006108b76108b284610864565b610849565b9050828152602081018484840111156108d3576108d26107d3565b5b6108de848285610895565b509392505050565b600082601f8301126108fb576108fa6107ce565b5b813561090b8482602086016108a4565b91505092915050565b60006020828403121561092a576109296107c4565b5b600082013567ffffffffffffffff811115610948576109476107c9565b5b610954848285016108e6565b91505092915050565b6000819050919050565b6109708161095d565b82525050565b600060208201905061098b6000830184610967565b92915050565b61099a8161095d565b81146109a557600080fd5b50565b6000813590506109b781610991565b92915050565b600080600080600080600060e0888a0312156109dc576109db6107c4565b5b600088013567ffffffffffffffff8111156109fa576109f96107c9565b5b610a068a828b016108e6565b975050602088013567ffffffffffffffff811115610a2757610a266107c9565b5b610a338a828b016108e6565b965050604088013567ffffffffffffffff811115610a5457610a536107c9565b5b610a608a828b016108e6565b955050606088013567ffffffffffffffff811115610a8157610a806107c9565b5b610a8d8a828b016108e6565b945050608088013567ffffffffffffffff811115610aae57610aad6107c9565b5b610aba8a828b016108e6565b93505060a0610acb8a828b016109a8565b92505060c088013567ffffffffffffffff811115610aec57610aeb6107c9565b5b610af88a828b016108e6565b91505092959891949750929550565b60008060408385031215610b1e57610b1d6107c4565b5b600083013567ffffffffffffffff811115610b3c57610b3b6107c9565b5b610b48858286016108e6565b9250506020610b59858286016109a8565b9150509250929050565b600081519050919050565b600082825260208201905092915050565b60005b83811015610b9d578082015181840152602081019050610b82565b60008484015250505050565b6000610bb482610b63565b610bbe8185610b6e565b9350610bce818560208601610b7f565b610bd7816107d8565b840191505092915050565b60008115159050919050565b610bf781610be2565b82525050565b6000610120820190508181036000830152610c18818c610ba9565b90508181036020830152610c2c818b610ba9565b90508181036040830152610c40818a610ba9565b90508181036060830152610c548189610ba9565b9050610c636080830188610967565b81810360a0830152610c758187610ba9565b9050610c8460c0830186610967565b610c9160e0830185610967565b610c9f610100830184610bee565b9a9950505050505050505050565b600073ffffffffffffffffffffffffffffffffffffffff82169050919050565b6000610cd882610cad565b9050919050565b610ce881610ccd565b82525050565b60006040820190508181036000830152610d088185610ba9565b9050610d176020830184610cdf565b9392505050565b600081905092915050565b6000610d3482610b63565b610d3e8185610d1e565b9350610d4e818560208601610b7f565b80840191505092915050565b6000610d668284610d29565b915081905092915050565b7f4e487b7100000000000000000000000000000000000000000000000000000000600052602260045260246000fd5b60006002820490506001821680610db857607f821691505b602082108103610dcb57610dca610d71565b5b50919050565b60008190508160005260206000209050919050565b60006020601f8301049050919050565b600082821b905092915050565b600060088302610e337fffffffffffffffffffffffffffffffffffffffffffffffffffffffffffffffff82610df6565b610e3d8683610df6565b95508019841693508086168417925050509392505050565b6000819050919050565b6000610e7a610e75610e708461095d565b610e55565b61095d565b9050919050565b6000819050919050565b610e9483610e5f565b610ea8610ea082610e81565b848454610e03565b825550505050565b600090565b610ebd610eb0565b610ec8818484610e8b565b505050565b5b81811015610eec57610ee1600082610eb5565b600181019050610ece565b5050565b601f821115610f3157610f0281610dd1565b610f0b84610de6565b81016020851015610f1a578190505b610f2e610f2685610de6565b830182610ecd565b50505b505050565b600082821c905092915050565b6000610f5460001984600802610f36565b1980831691505092915050565b6000610f6d8383610f43565b9150826002028217905092915050565b610f8682610b63565b67ffffffffffffffff811115610f9f57610f9e6107e9565b5b610fa98254610da0565b610fb4828285610ef0565b600060209050601f831160018114610fe75760008415610fd5578287015190505b610fdf8582610f61565b865550611047565b601f198416610ff586610dd1565b60005b8281101561101d57848901518255600182019150602085019450602081019050610ff8565b8683101561103a5784890151611036601f891682610f43565b8355505b6001600288020188555050505b505050505050565b600060a08201905081810360008301526110698188610ba9565b9050818103602083015261107d8187610ba9565b905081810360408301526110918186610ba9565b905081810360608301526110a58185610ba9565b905081810360808301526110b98184610ba9565b90509695505050505050565b600060408201905081810360008301526110df8185610ba9565b90506110ee6020830184610967565b9392505050565b7f4e487b7100000000000000000000000000000000000000000000000000000000600052601160045260246000fd5b600061112f8261095d565b915061113a8361095d565b9250828201905080821115611152576111516110f5565b5b92915050565b600060208201905081810360008301526111728184610ba9565b90509291505056fea2646970667358221220ddfaddb9dd9794367fcda7a0c869c6108beb375f865c19677d59a4a258b3a41364736f6c63430008140033",
  "linkReferences": {},
  "deployedLinkReferences": {}
}