{"contracts/EvidenceRegistry.sol":{"EvidenceRegistry":{"abi":[{"anonymous":false,"inputs":[{"indexed":false,"internalType":"string","name":"caseId","type":"string"},{"indexed":false,"internalType":"uint256","name":"score","type":"uint256"}],"name":"AuthenticityStored","type":"event"},{"anonymous":false,"inputs":[{"indexed":false,"internalType":"string","name":"caseId","type":"string"},{"indexed":false,"internalType":"address","name":"authority","type":"address"}],"name":"AuthorityApproved","type":"event"},{"anonymous":false,"inputs":[{"indexed":false,"internalType":"string","name":"caseId","type":"string"},{"indexed":false,"internalType":"string","name":"cid","type":"string"},{"indexed":false,"internalType":"string","name":"fileHash","type":"string"},{"indexed":false,"internalType":"string","name":"anonId","type":"string"},{"indexed":false,"internalType":"string","name":"revealMode","type":"string"}],"name":"CaseRegistered","type":"event"},{"anonymous":false,"inputs":[{"indexed":false,"internalType":"string","name":"anonId","type":"string"},{"indexed":false,"internalType":"uint256","name":"score","type":"uint256"}],"name":"ReputationUpdated","type":"event"},{"anonymous":false,"inputs":[{"indexed":false,"internalType":"string","name":"caseId","type":"string"}],"name":"RevealTriggered","type":"event"},{"inputs":[{"internalType":"string","name":"","type":"string"}],"name":"cases","outputs":[{"internalType":"string","name":"ipfsCid","type":"string"},{"internalType":"string","name":"fileHash","type":"string"},{"internalType":"string","name":"anonId","type":"string"},{"internalType":"string","name":"zkCategory","type":"string"},{"internalType":"uint256","name":"authenticityScore","type":"uint256"},{"internalType":"string","name":"revealMode","type":"string"},{"internalType":"uint256","name":"timestamp","type":"uint256"},{"internalType":"uint256","name":"revealUnlockTime","type":"uint256"},{"internalType":"bool","name":"revealed","type":"bool"}],"stateMutability":"view","type":"function"},{"inputs":[{"internalType":"string","name":"caseId","type":"string"}],"name":"logAuthorityApproval","outputs":[],"stateMutability":"nonpayable","type":"function"},{"inputs":[{"internalType":"string","name":"caseId","type":"string"},{"internalType":"string","name":"cid","type":"string"},{"internalType":"string","name":"fileHash","type":"string"},{"internalType":"string","name":"anonId","type":"string"},{"internalType":"string","name":"revealMode","type":"string"},{"internalType":"uint256","name":"revealUnlockTime","type":"uint256"},{"internalType":"string","name":"zkCategory","type":"string"}],"name":"registerCase","outputs":[],"stateMutability":"nonpayable","type":"function"},{"inputs":[{"internalType":"string","name":"","type":"string"}],"name":"reputationScore","outputs":[{"internalType":"uint256","name":"","type":"uint256"}],"stateMutability":"view","type":"function"},{"inputs":[{"internalType":"string","name":"caseId","type":"string"},{"internalType":"uint256","name":"score","type":"uint256"}],"name":"storeAuthenticityScore","outputs":[],"stateMutability":"nonpayable","type":"function"},{"inputs":[{"internalType":"string","name":"caseId","type":"string"}],"name":"triggerReveal","outputs":[],"stateMutability":"nonpayable","type":"function"},{"inputs":[{"internalType":"string","name":"anonId","type":"string"},{"internalType":"uint256","name":"value","type":"uint256"}],"name":"updateReputation","outputs":[],"stateMutability":"nonpayable","type":"function"}],"evm":{"bytecode":{"linkReferences":{},"object":"608060405234801561001057600080fd5b506111b0806100206000396000f3fe608060405234801561001057600080fd5b506004361061007d5760003560e01c8063d50fd07a1161005b578063d50fd07a146100ea578063df96582914610106578063e4fe33e91461013e578063ed72be6c1461015a5761007d565b806327b1619e14610082578063b31c54ac146100b2578063c31dbffa146100ce575b600080fd5b61009c60048036038101906100979190610914565b610176565b6040516100a99190610976565b60405180910390f35b6100cc60048036038101906100c79190610914565b6101a4565b005b6100e860048036038101906100e391906109bd565b6101e0565b005b61010460048036038101906100ff9190610b07565b61033a565b005b610120600480360381019061011b9190610914565b61039d565b60405161013599989796959493929190610bfd565b60405180910390f35b61015860048036038101906101539190610b07565b6106b6565b005b610174600480360381019061016f9190610914565b610746565b005b6001818051602081018201805184825260208301602085012081835280955050505050506000915090505481565b7f180af40580a444fc1cc61da74e35230cf4810c2eaa0d2ac27b9bc248a1d2410081336040516101d5929190610cee565b60405180910390a150565b60405180610120016040528087815260200186815260200185815260200182815260200160008152602001848152602001428152602001838152602001600015158152506000886040516102349190610d5a565b908152602001604051809103902060008201518160000190816102579190610f7d565b50602082015181600101908161026d9190610f7d565b5060408201518160020190816102839190610f7d565b5060608201518160030190816102999190610f7d565b506080820151816004015560a08201518160050190816102b99190610f7d565b5060c0820151816006015560e082015181600701556101008201518160080160006101000a81548160ff0219169083151502179055509050507f3fd8ff502d4d963be1cc5ee82c09fc58a150546c585578d2bedc31f226e9c735878787878760405161032995949392919061104f565b60405180910390a150505050505050565b8060008360405161034b9190610d5a565b9081526020016040518091039020600401819055507f5208695da272aecfacbde57e0e7623d5e5434e16656f820cf4a254377b699a2382826040516103919291906110c5565b60405180910390a15050565b6000818051602081018201805184825260208301602085012081835280955050505050506000915090508060000180546103d690610da0565b80601f016020809104026020016040519081016040528092919081815260200182805461040290610da0565b801561044f5780601f106104245761010080835404028352916020019161044f565b820191906000526020600020905b81548152906001019060200180831161043257829003601f168201915b50505050509080600101805461046490610da0565b80601f016020809104026020016040519081016040528092919081815260200182805461049090610da0565b80156104dd5780601f106104b2576101008083540402835291602001916104dd565b820191906000526020600020905b8154815290600101906020018083116104c057829003601f168201915b5050505050908060020180546104f290610da0565b80601f016020809104026020016040519081016040528092919081815260200182805461051e90610da0565b801561056b5780601f106105405761010080835404028352916020019161056b565b820191906000526020600020905b81548152906001019060200180831161054e57829003601f168201915b50505050509080600301805461058090610da0565b80601f01602080910402602001604051908101604052809291908181526020018280546105ac90610da0565b80156105f95780601f106105ce576101008083540402835291602001916105f9565b820191906000526020600020905b8154815290600101906020018083116105dc57829003601f168201915b50505050509080600401549080600501805461061490610da0565b80601f016020809104026020016040519081016040528092919081815260200182805461064090610da0565b801561068d5780601f106106625761010080835404028352916020019161068d565b820191906000526020600020905b81548152906001019060200180831161067057829003601f168201915b5050505050908060060154908060070154908060080160009054906101000a900460ff16905089565b806001836040516106c79190610d5a565b908152602001604051809103902060008282546106e49190611124565b925050819055507f9a1da23587dcd4b8f3cf09c85accf932eccfcf4a2bb2a823982265b1522ade0c8260018460405161071d9190610d5a565b90815260200160405180910390205460405161073a9291906110c5565b60405180910390a15050565b60016000826040516107589190610d5a565b908152602001604051809103902060080160006101000a81548160ff0219169083151502179055507f624e6402193ab39d145258016c2774afd4b94af7f3f3cc0c5f82a72701691b81816040516107af9190611158565b60405180910390a150565b6000604051905090565b600080fd5b600080fd5b600080fd5b600080fd5b6000601f19601f8301169050919050565b7f4e487b7100000000000000000000000000000000000000000000000000000000600052604160045260246000fd5b610821826107d8565b810181811067ffffffffffffffff821117156108405761083f6107e9565b5b80604052505050565b60006108536107ba565b905061085f8282610818565b919050565b600067ffffffffffffffff82111561087f5761087e6107e9565b5b610888826107d8565b9050602081019050919050565b82818337600083830152505050565b60006108b76108b284610864565b610849565b9050828152602081018484840111156108d3576108d26107d3565b5b6108de848285610895565b509392505050565b600082601f8301126108fb576108fa6107ce565b5b813561090b8482602086016108a4565b91505092915050565b60006020828403121561092a576109296107c4565b5b600082013567ffffffffffffffff811115610948576109476107c9565b5b610954848285016108e6565b91505092915050565b6000819050919050565b6109708161095d565b82525050565b600060208201905061098b6000830184610967565b92915050565b61099a8161095d565b81146109a557600080fd5b50565b6000813590506109b781610991565b92915050565b600080600080600080600060e0888a0312156109dc576109db6107c4565b5b600088013567ffffffffffffffff8111156109fa576109f96107c9565b5b610a068a828b016108e6565b975050602088013567ffffffffffffffff811115610a2757610a266107c9565b5b610a338a828b016108e6565b965050604088013567ffffffffffffffff811115610a5457610a536107c9565b5b610a608a828b016108e6565b955050606088013567ffffffffffffffff811115610a8157610a806107c9565b5b610a8d8a828b016108e6565b945050608088013567ffffffffffffffff811115610aae57610aad6107c9565b5b610aba8a828b016108e6565b93505060a0610acb8a828b016109a8565b92505060c088013567ffffffffffffffff811115610aec57610aeb6107c9565b5b610af88a828b016108e6565b91505092959891949750929550565b60008060408385031215610b1e57610b1d6107c4565b5b600083013567ffffffffffffffff811115610b3c57610b3b6107c9565b5b610b48858286016108e6565b9250506020610b59858286016109a8565b9150509250929050565b600081519050919050565b600082825260208201905092915050565b60005b83811015610b9d578082015181840152602081019050610b82565b60008484015250505050565b6000610bb482610b63565b610bbe8185610b6e565b9350610bce818560208601610b7f565b610bd7816107d8565b840191505092915050565b60008115159050919050565b610bf781610be2565b82525050565b6000610120820190508181036000830152610c18818c610ba9565b90508181036020830152610c2c818b610ba9565b90508181036040830152610c40818a610ba9565b90508181036060830152610c548189610ba9565b9050610c636080830188610967565b81810360a0830152610c758187610ba9565b9050610c8460c0830186610967565b610c9160e0830185610967565b610c9f610100830184610bee565b9a9950505050505050505050565b600073ffffffffffffffffffffffffffffffffffffffff82169050919050565b6000610cd882610cad565b9050919050565b610ce881610ccd565b82525050565b60006040820190508181036000830152610d088185610ba9565b9050610d176020830184610cdf565b9392505050565b600081905092915050565b6000610d3482610b63565b610d3e8185610d1e565b9350610d4e818560208601610b7f565b80840191505092915050565b6000610d668284610d29565b915081905092915050565b7f4e487b7100000000000000000000000000000000000000000000000000000000600052602260045260246000fd5b60006002820490506001821680610db857607f821691505b602082108103610dcb57610dca610d71565b5b50919050565b60008190508160005260206000209050919050565b60006020601f8301049050919050565b600082821b905092915050565b600060088302610e337fffffffffffffffffffffffffffffffffffffffffffffffffffffffffffffffff82610df6565b610e3d8683610df6565b95508019841693508086168417925050509392505050565b6000819050919050565b6000610e7a610e75610e708461095d565b610e55565b61095d565b9050919050565b6000819050919050565b610e9483610e5f565b610ea8610ea082610e81565b848454610e03565b825550505050565b600090565b610ebd610eb0565b610ec8818484610e8b565b505050565b5b81811015610eec57610ee1600082610eb5565b600181019050610ece565b5050565b601f821115610f3157610f0281610dd1565b610f0b84610de6565b81016020851015610f1a578190505b610f2e610f2685610de6565b830182610ecd565b50505b505050565b600082821c905092915050565b6000610f5460001984600802610f36565b1980831691505092915050565b6000610f6d8383610f43565b9150826002028217905092915050565b610f8682610b63565b67ffffffffffffffff811115610f9f57610f9e6107e9565b5b610fa98254610da0565b610fb4828285610ef0565b600060209050601f831160018114610fe75760008415610fd5578287015190505b610fdf8582610f61565b865550611047565b601f198416610ff586610dd1565b60005b8281101561101d57848901518255600182019150602085019450602081019050610ff8565b8683101561103a5784890151611036601f891682610f43565b8355505b6001600288020188555050505b505050505050565b600060a08201905081810360008301526110698188610ba9565b9050818103602083015261107d8187610ba9565b905081810360408301526110918186610ba9565b905081810360608301526110a58185610ba9565b905081810360808301526110b98184610ba9565b90509695505050505050565b600060408201905081810360008301526110df8185610ba9565b90506110ee6020830184610967565b9392505050565b7f4e487b7100000000000000000000000000000000000000000000000000000000600052601160045260246000fd5b600061112f8261095d565b915061113a8361095d565b9250828201905080821115611152576111516110f5565b5b92915050565b600060208201905081810360008301526111728184610ba9565b90509291505056fea2646970667358221220ddfaddb9dd9794367fcda7a0c869c6108beb375f865c19677d59a4a258b3a41364736f6c63430008140033","opcodes":"PUSH1 0x80 PUSH1 0x40 MSTORE CALLVALUE DUP1 ISZERO PUSH2 0x10 JUMPI PUSH1 0x0 DUP1 REVERT JUMPDEST POP PUSH2 0x11B0 DUP1 PUSH2 0x20 PUSH1 0x0 CODECOPY PUSH1 0x0 RETURN INVALID PUSH1 0x80 PUSH1 0x40 MSTORE CALLVALUE DUP1 ISZERO PUSH2 0x10 JUMPI PUSH1 0x0 DUP1 REVERT JUMPDEST POP PUSH1 0x4 CALLDATASIZE LT PUSH2 0x7D JUMPI PUSH1 0x0 CALLDATALOAD PUSH1 0xE0 SHR DUP1 PUSH4 0xD50FD07A GT PUSH2 0x5B JUMPI DUP1 PUSH4 0xD50FD07A EQ PUSH2 0xEA JUMPI DUP1 PUSH4 0xDF965829 EQ PUSH2 0x106 JUMPI DUP1 PUSH4 0xE4FE33E9 EQ PUSH2 0x13E JUMPI DUP1 PUSH4 0xED72BE6C EQ PUSH2 0x15A JUMPI PUSH2 0x7D JUMP JUMPDEST DUP1 PUSH4 0x27B1619E EQ PUSH2 0x82 JUMPI DUP1 PUSH4 0xB31C54AC EQ PUSH2 0xB2 JUMPI DUP1 PUSH4 0xC31DBFFA EQ PUSH2 0xCE JUMPI JUMPDEST PUSH1 0x0 DUP1 REVERT JUMPDEST PUSH2 0x9C PUSH1 0x4 DUP1 CALLDATASIZE SUB DUP2 ADD SWAP1 PUSH2 0x97 SWAP2 SWAP1 PUSH2 0x914 JUMP JUMPDEST PUSH2 0x176 JUMP JUMPDEST PUSH1 0x40 MLOAD PUSH2 0xA9 SWAP2 SWAP1 PUSH2 0x976 JUMP JUMPDEST PUSH1 0x40 MLOAD DUP1 SWAP2 SUB SWAP1 RETURN JUMPDEST PUSH2 0xCC PUSH1 0x4 DUP1 CALLDATASIZE SUB DUP2 ADD SWAP1 PUSH2 0xC7 SWAP2 SWAP1 PUSH2 0x914 JUMP JUMPDEST PUSH2 0x1A4 JUMP JUMPDEST STOP JUMPDEST PUSH2 0xE8 PUSH1 0x4 DUP1 CALLDATASIZE SUB DUP2 ADD SWAP1 PUSH2 0xE3 SWAP2 SWAP1 PUSH2 0x9BD JUMP JUMPDEST PUSH2 0x1E0 JUMP JUMPDEST STOP JUMPDEST PUSH2 0x104 PUSH1 0x4 DUP1 CALLDATASIZE SUB DUP2 ADD SWAP1 PUSH2 0xFF SWAP2 SWAP1 PUSH2 0xB07 JUMP JUMPDEST PUSH2 0x33A JUMP JUMPDEST STOP JUMPDEST PUSH2 0x120 PUSH1 0x4 DUP1 CALLDATASIZE SUB DUP2 ADD SWAP1 PUSH2 0x11B SWAP2 SWAP1 PUSH2 0x914 JUMP JUMPDEST PUSH2 0x39D JUMP JUMPDEST PUSH1 0x40 MLOAD PUSH2 0x135 SWAP10 SWAP9 SWAP8 SWAP7 SWAP6 SWAP5 SWAP4 SWAP3 SWAP2 SWAP1 PUSH2 0xBFD JUMP JUMPDEST PUSH1 0x40 MLOAD DUP1 SWAP2 SUB SWAP1 RETURN JUMPDEST PUSH2 0x158 PUSH1 0x4 DUP1 CALLDATASIZE SUB DUP2 ADD SWAP1 PUSH2 0x153 SWAP2 SWAP1 PUSH2 0xB07 JUMP JUMPDEST PUSH2 0x6B6 JUMP JUMPDEST STOP JUMPDEST PUSH2 0x174 PUSH1 0x4 DUP1 CALLDATASIZE SUB DUP2 ADD SWAP1 PUSH2 0x16F SWAP2 SWAP1 PUSH2 0x914 JUMP JUMPDEST PUSH2 0x746 JUMP JUMPDEST STOP JUMPDEST PUSH1 0x1 DUP2 DUP1 MLOAD PUSH1 0x20 DUP2 ADD DUP3 ADD DUP1 MLOAD DUP5 DUP3 MSTORE PUSH1 0x20 DUP4 ADD PUSH1 0x20 DUP6 ADD KECCAK256 DUP2 DUP4 MSTORE DUP1 SWAP6 POP POP POP POP POP POP PUSH1 0x0 SWAP2 POP SWAP1 POP SLOAD DUP2 JUMP JUMPDEST PUSH32 0x180AF40580A444FC1CC61DA74E35230CF4810C2EAA0D2AC27B9BC248A1D24100 DUP2 CALLER PUSH1 0x40 MLOAD PUSH2 0x1D5 SWAP3 SWAP2 SWAP1 PUSH2 0xCEE JUMP JUMPDEST PUSH1 0x40 MLOAD DUP1 SWAP2 SUB SWAP1 LOG1 POP JUMP JUMPDEST PUSH1 0x40 MLOAD DUP1 PUSH2 0x120 ADD PUSH1 0x40 MSTORE DUP1 DUP8 DUP2 MSTORE PUSH1 0x20 ADD DUP7 DUP2 MSTORE PUSH1 0x20 ADD DUP6 DUP2 MSTORE PUSH1 0x20 ADD DUP3 DUP2 MSTORE PUSH1 0x20 ADD PUSH1 0x0 DUP2 MSTORE PUSH1 0x20 ADD DUP5 DUP2 MSTORE PUSH1 0x20 ADD TIMESTAMP DUP2 MSTORE PUSH1 0x20 ADD DUP4 DUP2 MSTORE PUSH1 0x20 ADD PUSH1 0x0 ISZERO ISZERO DUP2 MSTORE POP PUSH1 0x0 DUP9 PUSH1 0x40 MLOAD PUSH2 0x234 SWAP2 SWAP1 PUSH2 0xD5A JUMP JUMPDEST SWAP1 DUP2 MSTORE PUSH1 0x20 ADD PUSH1 0x40 MLOAD DUP1 SWAP2 SUB SWAP1 KECCAK256 PUSH1 0x0 DUP3 ADD MLOAD DUP2 PUSH1 0x0 ADD SWAP1 DUP2 PUSH2 0x257 SWAP2 SWAP1 PUSH2 0xF7D JUMP JUMPDEST POP PUSH1 0x20 DUP3 ADD MLOAD DUP2 PUSH1 0x1 ADD SWAP1 DUP2 PUSH2 0x26D SWAP2 SWAP1 PUSH2 0xF7D JUMP JUMPDEST POP PUSH1 0x40 DUP3 ADD MLOAD DUP2 PUSH1 0x2 ADD SWAP1 DUP2 PUSH2 0x283 SWAP2 SWAP1 PUSH2 0xF7D JUMP JUMPDEST POP PUSH1 0x60 DUP3 ADD MLOAD DUP2 PUSH1 0x3 ADD SWAP1 DUP2 PUSH2 0x299 SWAP2 SWAP1 PUSH2 0xF7D JUMP JUMPDEST POP PUSH1 0x80 DUP3 ADD MLOAD DUP2 PUSH1 0x4 ADD SSTORE PUSH1 0xA0 DUP3 ADD MLOAD DUP2 PUSH1 0x5 ADD SWAP1 DUP2 PUSH2 0x2B9 SWAP2 SWAP1 PUSH2 0xF7D JUMP JUMPDEST POP PUSH1 0xC0 DUP3 ADD MLOAD DUP2 PUSH1 0x6 ADD SSTORE PUSH1 0xE0 DUP3 ADD MLOAD DUP2 PUSH1 0x7 ADD SSTORE PUSH2 0x100 DUP3 ADD MLOAD DUP2 PUSH1 0x8 ADD PUSH1 0x0 PUSH2 0x100 EXP DUP2 SLOAD DUP2 PUSH1 0xFF MUL NOT AND SWAP1 DUP4 ISZERO ISZERO MUL OR SWAP1 SSTORE POP SWAP1 POP POP PUSH32 0x3FD8FF502D4D963BE1CC5EE82C09FC58A150546C585578D2BEDC31F226E9C735 DUP8 DUP8 DUP8 DUP8 DUP8 PUSH1 0x40 MLOAD PUSH2 0x329 SWAP6 SWAP5 SWAP4 SWAP3 SWAP2 SWAP1 PUSH2 0x104F JUMP JUMPDEST PUSH1 0x40 MLOAD DUP1 SWAP2 SUB SWAP1 LOG1 POP POP POP POP POP POP POP JUMP JUMPDEST DUP1 PUSH1 0x0 DUP4 PUSH1 0x40 MLOAD PUSH2 0x34B SWAP2 SWAP1 PUSH2 0xD5A JUMP JUMPDEST SWAP1 DUP2 MSTORE PUSH1 0x20 ADD PUSH1 0x40 MLOAD DUP1 SWAP2 SUB SWAP1 KECCAK256 PUSH1 0x4 ADD DUP2 SWAP1 SSTORE POP PUSH32 0x5208695DA272AECFACBDE57E0E7623D5E5434E16656F820CF4A254377B699A23 DUP3 DUP3 PUSH1 0x40 MLOAD PUSH2 0x391 SWAP3 SWAP2 SWAP1 PUSH2 0x10C5 JUMP JUMPDEST PUSH1 0x40 MLOAD DUP1 SWAP2 SUB SWAP1 LOG1 POP POP JUMP JUMPDEST PUSH1 0x0 DUP2 DUP1 MLOAD PUSH1 0x20 DUP2 ADD DUP3 ADD DUP1 MLOAD DUP5 DUP3 MSTORE PUSH1 0x20 DUP4 ADD PUSH1 0x20 DUP6 ADD KECCAK256 DUP2 DUP4 MSTORE DUP1 SWAP6 POP POP POP POP POP POP PUSH1 0x0 SWAP2 POP SWAP1 POP DUP1 PUSH1 0x0 ADD DUP1 SLOAD PUSH2 0x3D6 SWAP1 PUSH2 0xDA0 JUMP JUMPDEST DUP1 PUSH1 0x1F ADD PUSH1 0x20 DUP1 SWAP2 DIV MUL PUSH1 0x20 ADD PUSH1 0x40 MLOAD SWAP1 DUP2 ADD PUSH1 0x40 MSTORE DUP1 SWAP3 SWAP2 SWAP1 DUP2 DUP2 MSTORE PUSH1 0x20 ADD DUP3 DUP1 SLOAD PUSH2 0x402 SWAP1 PUSH2 0xDA0 JUMP JUMPDEST DUP1 ISZERO PUSH2 0x44F JUMPI DUP1 PUSH1 0x1F LT PUSH2 0x424 JUMPI PUSH2 0x100 DUP1 DUP4 SLOAD DIV MUL DUP4 MSTORE SWAP2 PUSH1 0x20 ADD SWAP2 PUSH2 0x44F JUMP JUMPDEST DUP3 ADD SWAP2 SWAP1 PUSH1 0x0 MSTORE PUSH1 0x20 PUSH1 0x0 KECCAK256 SWAP1 JUMPDEST DUP2 SLOAD DUP2 MSTORE SWAP1 PUSH1 0x1 ADD SWAP1 PUSH1 0x20 ADD DUP1 DUP4 GT PUSH2 0x432 JUMPI DUP3 SWAP1 SUB PUSH1 0x1F AND DUP3 ADD SWAP2 JUMPDEST POP POP POP POP POP SWAP1 DUP1 PUSH1 0x1 ADD DUP1 SLOAD PUSH2 0x464 SWAP1 PUSH2 0xDA0 JUMP JUMPDEST DUP1 PUSH1 0x1F ADD PUSH1 0x20 DUP1 SWAP2 DIV MUL PUSH1 0x20 ADD PUSH1 0x40 MLOAD SWAP1 DUP2 ADD PUSH1 0x40 MSTORE DUP1 SWAP3 SWAP2 SWAP1 DUP2 DUP2 MSTORE PUSH1 0x20 ADD DUP3 DUP1 SLOAD PUSH2 0x490 SWAP1 PUSH2 0xDA0 JUMP JUMPDEST DUP1 ISZERO PUSH2 0x4DD JUMPI DUP1 PUSH1 0x1F LT PUSH2 0x4B2 JUMPI PUSH2 0x100 DUP1 DUP4 SLOAD DIV MUL DUP4 MSTORE SWAP2 PUSH1 0x20 ADD SWAP2 PUSH2 0x4DD JUMP JUMPDEST DUP3 ADD SWAP2 SWAP1 PUSH1 0x0 MSTORE PUSH1 0x20 PUSH1 0x0 KECCAK256 SWAP1 JUMPDEST DUP2 SLOAD DUP2 MSTORE SWAP1 PUSH1 0x1 ADD SWAP1 PUSH1 0x20 ADD DUP1 DUP4 GT PUSH2 0x4C0 JUMPI DUP3 SWAP1 SUB PUSH1 0x1F AND DUP3 ADD SWAP2 JUMPDEST POP POP POP POP POP SWAP1 DUP1 PUSH1 0x2 ADD DUP1 SLOAD PUSH2 0x4F2 SWAP1 PUSH2 0xDA0 JUMP JUMPDEST DUP1 PUSH1 0x1F ADD PUSH1 0x20 DUP1 SWAP2 DIV MUL PUSH1 0x20 ADD PUSH1 0x40 MLOAD SWAP1 DUP2 ADD PUSH1 0x40 MSTORE DUP1 SWAP3 SWAP2 SWAP1 DUP2 DUP2 MSTORE PUSH1 0x20 ADD DUP3 DUP1 SLOAD PUSH2 0x51E SWAP1 PUSH2 0xDA0 JUMP JUMPDEST DUP1 ISZERO PUSH2 0x56B JUMPI DUP1 PUSH1 0x1F LT PUSH2 0x540 JUMPI PUSH2 0x100 DUP1 DUP4 SLOAD DIV MUL DUP4 MSTORE SWAP2 PUSH1 0x20 ADD SWAP2 PUSH2 0x56B JUMP JUMPDEST DUP3 ADD SWAP2 SWAP1 PUSH1 0x0 MSTORE PUSH1 0x20 PUSH1 0x0 KECCAK256 SWAP1 JUMPDEST DUP2 SLOAD DUP2 MSTORE SWAP1 PUSH1 0x1 ADD SWAP1 PUSH1 0x20 ADD DUP1 DUP4 GT PUSH2 0x54E JUMPI DUP3 SWAP1 SUB PUSH1 0x1F AND DUP3 ADD SWAP2 JUMPDEST POP POP POP POP POP SWAP1 DUP1 PUSH1 0x3 ADD DUP1 SLOAD PUSH2 0x580 SWAP1 PUSH2 0xDA0 JUMP JUMPDEST DUP1 PUSH1 0x1F ADD PUSH1 0x20 DUP1 SWAP2 DIV MUL PUSH1 0x20 ADD PUSH1 0x40 MLOAD SWAP1 DUP2 ADD PUSH1 0x40 MSTORE DUP1 SWAP3 SWAP2 SWAP1 DUP2 DUP2 MSTORE PUSH1 0x20 ADD DUP3 DUP1 SLOAD PUSH2 0x5AC SWAP1 PUSH2 0xDA0 JUMP JUMPDEST DUP1 ISZERO PUSH2 0x5F9 JUMPI DUP1 PUSH1 0x1F LT PUSH2 0x5CE JUMPI PUSH2 0x100 DUP1 DUP4 SLOAD DIV MUL DUP4 MSTORE SWAP2 PUSH1 0x20 ADD SWAP2 PUSH2 0x5F9 JUMP JUMPDEST DUP3 ADD SWAP2 SWAP1 PUSH1 0x0 MSTORE PUSH1 0x20 PUSH1 0x0 KECCAK256 SWAP1 JUMPDEST DUP2 SLOAD DUP2 MSTORE SWAP1 PUSH1 0x1 ADD SWAP1 PUSH1 0x20 ADD DUP1 DUP4 GT PUSH2 0x5DC JUMPI DUP3 SWAP1 SUB PUSH1 0x1F AND DUP3 ADD SWAP2 JUMPDEST POP POP POP POP POP SWAP1 DUP1 PUSH1 0x4 ADD SLOAD SWAP1 DUP1 PUSH1 0x5 ADD DUP1 SLOAD PUSH2 0x614 SWAP1 PUSH2 0xDA0 JUMP JUMPDEST DUP1 PUSH1 0x1F ADD PUSH1 0x20 DUP1 SWAP2 DIV MUL PUSH1 0x20 ADD PUSH1 0x40 MLOAD SWAP1 DUP2 ADD PUSH1 0x40 MSTORE DUP1 SWAP3 SWAP2 SWAP1 DUP2 DUP2 MSTORE PUSH1 0x20 ADD DUP3 DUP1 SLOAD PUSH2 0x640 SWAP1 PUSH2 0xDA0 JUMP JUMPDEST DUP1 ISZERO PUSH2 0x68D JUMPI DUP1 PUSH1 0x1F LT PUSH2 0x662 JUMPI PUSH2 0x100 DUP1 DUP4 SLOAD DIV MUL DUP4 MSTORE SWAP2 PUSH1 0x20 ADD SWAP2 PUSH2 0x68D JUMP JUMPDEST DUP3 ADD SWAP2 SWAP1 PUSH1 0x0 MSTORE PUSH1 0x20 PUSH1 0x0 KECCAK256 SWAP1 JUMPDEST DUP2 SLOAD DUP2 MSTORE SWAP1 PUSH1 0x1 ADD SWAP1 PUSH1 0x20 ADD DUP1 DUP4 GT PUSH2 0x670 JUMPI DUP3 SWAP1 SUB PUSH1 0x1F AND DUP3 ADD SWAP2 JUMPDEST POP POP POP POP POP SWAP1 DUP1 PUSH1 0x6 ADD SLOAD SWAP1 DUP1 PUSH1 0x7 ADD SLOAD SWAP1 DUP1 PUSH1 0x8 ADD PUSH1 0x0 SWAP1 SLOAD SWAP1 PUSH2 0x100 EXP SWAP1 DIV PUSH1 0xFF AND SWAP1 POP DUP10 JUMP JUMPDEST DUP1 PUSH1 0x1 DUP4 PUSH1 0x40 MLOAD PUSH2 0x6C7 SWAP2 SWAP1 PUSH2 0xD5A JUMP JUMPDEST SWAP1 DUP2 MSTORE PUSH1 0x20 ADD PUSH1 0x40 MLOAD DUP1 SWAP2 SUB SWAP1 KECCAK256 PUSH1 0x0 DUP3 DUP3 SLOAD PUSH2 0x6E4 SWAP2 SWAP1 PUSH2 0x1124 JUMP JUMPDEST SWAP3 POP POP DUP2 SWAP1 SSTORE POP PUSH32 0x9A1DA23587DCD4B8F3CF09C85ACCF932ECCFCF4A2BB2A823982265B1522ADE0C DUP3 PUSH1 0x1 DUP5 PUSH1 0x40 MLOAD PUSH2 0x71D SWAP2 SWAP1 PUSH2 0xD5A JUMP JUMPDEST SWAP1 DUP2 MSTORE PUSH1 0x20 ADD PUSH1 0x40 MLOAD DUP1 SWAP2 SUB SWAP1 KECCAK256 SLOAD PUSH1 0x40 MLOAD PUSH2 0x73A SWAP3 SWAP2 SWAP1 PUSH2 0x10C5 JUMP JUMPDEST PUSH1 0x40 MLOAD DUP1 SWAP2 SUB SWAP1 LOG1 POP POP JUMP JUMPDEST PUSH1 0x1 PUSH1 0x0 DUP3 PUSH1 0x40 MLOAD PUSH2 0x758 SWAP2 SWAP1 PUSH2 0xD5A JUMP JUMPDEST SWAP1 DUP2 MSTORE PUSH1 0x20 ADD PUSH1 0x40 MLOAD DUP1 SWAP2 SUB SWAP1 KECCAK256 PUSH1 0x8 ADD PUSH1 0x0 PUSH2 0x100 EXP DUP2 SLOAD DUP2 PUSH1 0xFF MUL NOT AND SWAP1 DUP4 ISZERO ISZERO MUL OR SWAP1 SSTORE POP PUSH32 0x624E6402193AB39D145258016C2774AFD4B94AF7F3F3CC0C5F82A72701691B81 DUP2 PUSH1 0x40 MLOAD PUSH2 0x7AF SWAP2 SWAP1 PUSH2 0x1158 JUMP JUMPDEST PUSH1 0x40 MLOAD DUP1 SWAP2 SUB SWAP1 LOG1 POP JUMP JUMPDEST PUSH1 0x0 PUSH1 0x40 MLOAD SWAP1 POP SWAP1 JUMP JUMPDEST PUSH1 0x0 DUP1 REVERT JUMPDEST PUSH1 0x0 DUP1 REVERT JUMPDEST PUSH1 0x0 DUP1 REVERT JUMPDEST PUSH1 0x0 DUP1 REVERT JUMPDEST PUSH1 0x0 PUSH1 0x1F NOT PUSH1 0x1F DUP4 ADD AND SWAP1 POP SWAP2 SWAP1 POP JUMP JUMPDEST PUSH32 0x4E487B7100000000000000000000000000000000000000000000000000000000 PUSH1 0x0 MSTORE PUSH1 0x41 PUSH1 0x4 MSTORE PUSH1 0x24 PUSH1 0x0 REVERT JUMPDEST PUSH2 0x821 DUP3 PUSH2 0x7D8 JUMP JUMPDEST DUP2 ADD DUP2 DUP2 LT PUSH8 0xFFFFFFFFFFFFFFFF DUP3 GT OR ISZERO PUSH2 0x840 JUMPI PUSH2 0x83F PUSH2 0x7E9 JUMP JUMPDEST JUMPDEST DUP1 PUSH1 0x40 MSTORE POP POP POP JUMP JUMPDEST PUSH1 0x0 PUSH2 0x853 PUSH2 0x7BA JUMP JUMPDEST SWAP1 POP PUSH2 0x85F DUP3 DUP3 PUSH2 0x818 JUMP JUMPDEST SWAP2 SWAP1 POP JUMP JUMPDEST PUSH1 0x0 PUSH8 0xFFFFFFFFFFFFFFFF DUP3 GT ISZERO PUSH2 0x87F JUMPI PUSH2 0x87E PUSH2 0x7E9 JUMP JUMPDEST JUMPDEST PUSH2 0x888 DUP3 PUSH2 0x7D8 JUMP JUMPDEST SWAP1 POP PUSH1 0x20 DUP2 ADD SWAP1 POP SWAP2 SWAP1 POP JUMP JUMPDEST DUP3 DUP2 DUP4 CALLDATACOPY PUSH1 0x0 DUP4 DUP4 ADD MSTORE POP POP POP JUMP JUMPDEST PUSH1 0x0 PUSH2 0x8B7 PUSH2 0x8B2 DUP5 PUSH2 0x864 JUMP JUMPDEST PUSH2 0x849 JUMP JUMPDEST SWAP1 POP DUP3 DUP2 MSTORE PUSH1 0x20 DUP2 ADD DUP5 DUP5 DUP5 ADD GT ISZERO PUSH2 0x8D3 JUMPI PUSH2 0x8D2 PUSH2 0x7D3 JUMP JUMPDEST JUMPDEST PUSH2 0x8DE DUP5 DUP3 DUP6 PUSH2 0x895 JUMP JUMPDEST POP SWAP4 SWAP3 POP POP POP JUMP JUMPDEST PUSH1 0x0 DUP3 PUSH1 0x1F DUP4 ADD SLT PUSH2 0x8FB JUMPI PUSH2 0x8FA PUSH2 0x7CE JUMP JUMPDEST JUMPDEST DUP2 CALLDATALOAD PUSH2 0x90B DUP5 DUP3 PUSH1 0x20 DUP7 ADD PUSH2 0x8A4 JUMP JUMPDEST SWAP2 POP POP SWAP3 SWAP2 POP POP JUMP JUMPDEST PUSH1 0x0 PUSH1 0x20 DUP3 DUP5 SUB SLT ISZERO PUSH2 0x92A JUMPI PUSH2 0x929 PUSH2 0x7C4 JUMP JUMPDEST JUMPDEST PUSH1 0x0 DUP3 ADD CALLDATALOAD PUSH8 0xFFFFFFFFFFFFFFFF DUP2 GT ISZERO PUSH2 0x948 JUMPI PUSH2 0x947 PUSH2 0x7C9 JUMP JUMPDEST JUMPDEST PUSH2 0x954 DUP5 DUP3 DUP6 ADD PUSH2 0x8E6 JUMP JUMPDEST SWAP2 POP POP SWAP3 SWAP2 POP POP JUMP JUMPDEST PUSH1 0x0 DUP2 SWAP1 POP SWAP2 SWAP1 POP JUMP JUMPDEST PUSH2 0x970 DUP2 PUSH2 0x95D JUMP JUMPDEST DUP3 MSTORE POP POP JUMP JUMPDEST PUSH1 0x0 PUSH1 0x20 DUP3 ADD SWAP1 POP PUSH2 0x98B PUSH1 0x0 DUP4 ADD DUP5 PUSH2 0x967 JUMP JUMPDEST SWAP3 SWAP2 POP POP JUMP JUMPDEST PUSH2 0x99A DUP2 PUSH2 0x95D JUMP JUMPDEST DUP2 EQ PUSH2 0x9A5 JUMPI PUSH1 0x0 DUP1 REVERT JUMPDEST POP JUMP JUMPDEST PUSH1 0x0 DUP2 CALLDATALOAD SWAP1 POP PUSH2 0x9B7 DUP2 PUSH2 0x991 JUMP JUMPDEST SWAP3 SWAP2 POP POP JUMP JUMPDEST PUSH1 0x0 DUP1 PUSH1 0x0 DUP1 PUSH1 0x0 DUP1 PUSH1 0x0 PUSH1 0xE0 DUP9 DUP11 SUB SLT ISZERO PUSH2 0x9DC JUMPI PUSH2 0x9DB PUSH2 0x7C4 JUMP JUMPDEST JUMPDEST PUSH1 0x0 DUP9 ADD CALLDATALOAD PUSH8 0xFFFFFFFFFFFFFFFF DUP2 GT ISZERO PUSH2 0x9FA JUMPI PUSH2 0x9F9 PUSH2 0x7C9 JUMP JUMPDEST JUMPDEST PUSH2 0xA06 DUP11 DUP3 DUP12 ADD PUSH2 0x8E6 JUMP JUMPDEST SWAP8 POP POP PUSH1 0x20 DUP9 ADD CALLDATALOAD PUSH8 0xFFFFFFFFFFFFFFFF DUP2 GT ISZERO PUSH2 0xA27 JUMPI PUSH2 0xA26 PUSH2 0x7C9 JUMP JUMPDEST JUMPDEST PUSH2 0xA33 DUP11 DUP3 DUP12 ADD PUSH2 0x8E6 JUMP JUMPDEST SWAP7 POP POP PUSH1 0x40 DUP9 ADD CALLDATALOAD PUSH8 0xFFFFFFFFFFFFFFFF DUP2 GT ISZERO PUSH2 0xA54 JUMPI PUSH2 0xA53 PUSH2 0x7C9 JUMP JUMPDEST JUMPDEST PUSH2 0xA60 DUP11 DUP3 DUP12 ADD PUSH2 0x8E6 JUMP JUMPDEST SWAP6 POP POP PUSH1 0x60 DUP9 ADD CALLDATALOAD PUSH8 0xFFFFFFFFFFFFFFFF DUP2 GT ISZERO PUSH2 0xA81 JUMPI PUSH2 0xA80 PUSH2 0x7C9 JUMP JUMPDEST JUMPDEST PUSH2 0xA8D DUP11 DUP3 DUP12 ADD PUSH2 0x8E6 JUMP JUMPDEST SWAP5 POP POP PUSH1 0x80 DUP9 ADD CALLDATALOAD PUSH8 0xFFFFFFFFFFFFFFFF DUP2 GT ISZERO PUSH2 0xAAE JUMPI PUSH2 0xAAD PUSH2 0x7C9 JUMP JUMPDEST JUMPDEST PUSH2 0xABA DUP11 DUP3 DUP12 ADD PUSH2 0x8E6 JUMP JUMPDEST SWAP4 POP POP PUSH1 0xA0 PUSH2 0xACB DUP11 DUP3 DUP12 ADD PUSH2 0x9A8 JUMP JUMPDEST SWAP3 POP POP PUSH1 0xC0 DUP9 ADD CALLDATALOAD PUSH8 0xFFFFFFFFFFFFFFFF DUP2 GT ISZERO PUSH2 0xAEC JUMPI PUSH2 0xAEB PUSH2 0x7C9 JUMP JUMPDEST JUMPDEST PUSH2 0xAF8 DUP11 DUP3 DUP12 ADD PUSH2 0x8E6 JUMP JUMPDEST SWAP2 POP POP SWAP3 SWAP6 SWAP9 SWAP2 SWAP5 SWAP8 POP SWAP3 SWAP6 POP JUMP JUMPDEST PUSH1 0x0 DUP1 PUSH1 0x40 DUP4 DUP6 SUB SLT ISZERO PUSH2 0xB1E JUMPI PUSH2 0xB1D PUSH2 0x7C4 JUMP JUMPDEST JUMPDEST PUSH1 0x0 DUP4 ADD CALLDATALOAD PUSH8 0xFFFFFFFFFFFFFFFF DUP2 GT ISZERO PUSH2 0xB3C JUMPI PUSH2 0xB3B PUSH2 0x7C9 JUMP JUMPDEST JUMPDEST PUSH2 0xB48 DUP6 DUP3 DUP7 ADD PUSH2 0x8E6 JUMP JUMPDEST SWAP3 POP POP PUSH1 0x20 PUSH2 0xB59 DUP6 DUP3 DUP7 ADD PUSH2 0x9A8 JUMP JUMPDEST SWAP2 POP POP SWAP3 POP SWAP3 SWAP1 POP JUMP JUMPDEST PUSH1 0x0 DUP2 MLOAD SWAP1 POP SWAP2 SWAP1 POP JUMP JUMPDEST PUSH1 0x0 DUP3 DUP3 MSTORE PUSH1 0x20 DUP3 ADD SWAP1 POP SWAP3 SWAP2 POP POP JUMP JUMPDEST PUSH1 0x0 JUMPDEST DUP4 DUP2 LT ISZERO PUSH2 0xB9D JUMPI DUP1 DUP3 ADD MLOAD DUP2 DUP5 ADD MSTORE PUSH1 0x20 DUP2 ADD SWAP1 POP PUSH2 0xB82 JUMP JUMPDEST PUSH1 0x0 DUP5 DUP5 ADD MSTORE POP POP POP POP JUMP JUMPDEST PUSH1 0x0 PUSH2 0xBB4 DUP3 PUSH2 0xB63 JUMP JUMPDEST PUSH2 0xBBE DUP2 DUP6 PUSH2 0xB6E JUMP JUMPDEST SWAP4 POP PUSH2 0xBCE DUP2 DUP6 PUSH1 0x20 DUP7 ADD PUSH2 0xB7F JUMP JUMPDEST PUSH2 0xBD7 DUP2 PUSH2 0x7D8 JUMP JUMPDEST DUP5 ADD SWAP2 POP POP SWAP3 SWAP2 POP POP JUMP JUMPDEST PUSH1 0x0 DUP2 ISZERO ISZERO SWAP1 POP SWAP2 SWAP1 POP JUMP JUMPDEST PUSH2 0xBF7 DUP2 PUSH2 0xBE2 JUMP JUMPDEST DUP3 MSTORE POP POP JUMP JUMPDEST PUSH1 0x0 PUSH2 0x120 DUP3 ADD SWAP1 POP DUP2 DUP2 SUB PUSH1 0x0 DUP4 ADD MSTORE PUSH2 0xC18 DUP2 DUP13 PUSH2 0xBA9 JUMP JUMPDEST SWAP1 POP DUP2 DUP2 SUB PUSH1 0x20 DUP4 ADD MSTORE PUSH2 0xC2C DUP2 DUP12 PUSH2 0xBA9 JUMP JUMPDEST SWAP1 POP DUP2 DUP2 SUB PUSH1 0x40 DUP4 ADD MSTORE PUSH2 0xC40 DUP2 DUP11 PUSH2 0xBA9 JUMP JUMPDEST SWAP1 POP DUP2 DUP2 SUB PUSH1 0x60 DUP4 ADD MSTORE PUSH2 0xC54 DUP2 DUP10 PUSH2 0xBA9 JUMP JUMPDEST SWAP1 POP PUSH2 0xC63 PUSH1 0x80 DUP4 ADD DUP9 PUSH2 0x967 JUMP JUMPDEST DUP2 DUP2 SUB PUSH1 0xA0 DUP4 ADD MSTORE PUSH2 0xC75 DUP2 DUP8 PUSH2 0xBA9 JUMP JUMPDEST SWAP1 POP PUSH2 0xC84 PUSH1 0xC0 DUP4 ADD DUP7 PUSH2 0x967 JUMP JUMPDEST PUSH2 0xC91 PUSH1 0xE0 DUP4 ADD DUP6 PUSH2 0x967 JUMP JUMPDEST PUSH2 0xC9F PUSH2 0x100 DUP4 ADD DUP5 PUSH2 0xBEE JUMP JUMPDEST SWAP11 SWAP10 POP POP POP POP POP POP POP POP POP POP JUMP JUMPDEST PUSH1 0x0 PUSH20 0xFFFFFFFFFFFFFFFFFFFFFFFFFFFFFFFFFFFFFFFF DUP3 AND SWAP1 POP SWAP2 SWAP1 POP JUMP JUMPDEST PUSH1 0x0 PUSH2 0xCD8 DUP3 PUSH2 0xCAD JUMP JUMPDEST SWAP1 POP SWAP2 SWAP1 POP JUMP JUMPDEST PUSH2 0xCE8 DUP2 PUSH2 0xCCD JUMP JUMPDEST DUP3 MSTORE POP POP JUMP JUMPDEST PUSH1 0x0 PUSH1 0x40 DUP3 ADD SWAP1 POP DUP2 DUP2 SUB PUSH1 0x0 DUP4 ADD MSTORE PUSH2 0xD08 DUP2 DUP6 PUSH2 0xBA9 JUMP JUMPDEST SWAP1 POP PUSH2 0xD17 PUSH1 0x20 DUP4 ADD DUP5 PUSH2 0xCDF JUMP JUMPDEST SWAP4 SWAP3 POP POP POP JUMP JUMPDEST PUSH1 0x0 DUP2 SWAP1 POP SWAP3 SWAP2 POP POP JUMP JUMPDEST PUSH1 0x0 PUSH2 0xD34 DUP3 PUSH2 0xB63 JUMP JUMPDEST PUSH2 0xD3E DUP2 DUP6 PUSH2 0xD1E JUMP JUMPDEST SWAP4 POP PUSH2 0xD4E DUP2 DUP6 PUSH1 0x20 DUP7 ADD PUSH2 0xB7F JUMP JUMPDEST DUP1 DUP5 ADD SWAP2 POP POP SWAP3 SWAP2 POP POP JUMP JUMPDEST PUSH1 0x0 PUSH2 0xD66 DUP3 DUP5 PUSH2 0xD29 JUMP JUMPDEST SWAP2 POP DUP2 SWAP1 POP SWAP3 SWAP2 POP POP JUMP JUMPDEST PUSH32 0x4E487B7100000000000000000000000000000000000000000000000000000000 PUSH1 0x0 MSTORE PUSH1 0x22 PUSH1 0x4 MSTORE PUSH1 0x24 PUSH1 0x0 REVERT JUMPDEST PUSH1 0x0 PUSH1 0x2 DUP3 DIV SWAP1 POP PUSH1 0x1 DUP3 AND DUP1 PUSH2 0xDB8 JUMPI PUSH1 0x7F DUP3 AND SWAP2 POP JUMPDEST PUSH1 0x20 DUP3 LT DUP2 SUB PUSH2 0xDCB JUMPI PUSH2 0xDCA PUSH2 0xD71 JUMP JUMPDEST JUMPDEST POP SWAP2 SWAP1 POP JUMP JUMPDEST PUSH1 0x0 DUP2 SWAP1 POP DUP2 PUSH1 0x0 MSTORE PUSH1 0x20 PUSH1 0x0 KECCAK256 SWAP1 POP SWAP2 SWAP1 POP JUMP JUMPDEST PUSH1 0x0 PUSH1 0x20 PUSH1 0x1F DUP4 ADD DIV SWAP1 POP SWAP2 SWAP1 POP JUMP JUMPDEST PUSH1 0x0 DUP3 DUP3 SHL SWAP1 POP SWAP3 SWAP2 POP POP JUMP JUMPDEST PUSH1 0x0 PUSH1 0x8 DUP4 MUL PUSH2 0xE33 PUSH32 0xFFFFFFFFFFFFFFFFFFFFFFFFFFFFFFFFFFFFFFFFFFFFFFFFFFFFFFFFFFFFFFFF DUP3 PUSH2 0xDF6 JUMP JUMPDEST PUSH2 0xE3D DUP7 DUP4 PUSH2 0xDF6 JUMP JUMPDEST SWAP6 POP DUP1 NOT DUP5 AND SWAP4 POP DUP1 DUP7 AND DUP5 OR SWAP3 POP POP POP SWAP4 SWAP3 POP POP POP JUMP JUMPDEST PUSH1 0x0 DUP2 SWAP1 POP SWAP2 SWAP1 POP JUMP JUMPDEST PUSH1 0x0 PUSH2 0xE7A PUSH2 0xE75 PUSH2 0xE70 DUP5 PUSH2 0x95D JUMP JUMPDEST PUSH2 0xE55 JUMP JUMPDEST PUSH2 0x95D JUMP JUMPDEST SWAP1 POP SWAP2 SWAP1 POP JUMP JUMPDEST PUSH1 0x0 DUP2 SWAP1 POP SWAP2 SWAP1 POP JUMP JUMPDEST PUSH2 0xE94 DUP4 PUSH2 0xE5F JUMP JUMPDEST PUSH2 0xEA8 PUSH2 0xEA0 DUP3 PUSH2 0xE81 JUMP JUMPDEST DUP5 DUP5 SLOAD PUSH2 0xE03 JUMP JUMPDEST DUP3 SSTORE POP POP POP POP JUMP JUMPDEST PUSH1 0x0 SWAP1 JUMP JUMPDEST PUSH2 0xEBD PUSH2 0xEB0 JUMP JUMPDEST PUSH2 0xEC8 DUP2 DUP5 DUP5 PUSH2 0xE8B JUMP JUMPDEST POP POP POP JUMP JUMPDEST JUMPDEST DUP2 DUP2 LT ISZERO PUSH2 0xEEC JUMPI PUSH2 0xEE1 PUSH1 0x0 DUP3 PUSH2 0xEB5 JUMP JUMPDEST PUSH1 0x1 DUP2 ADD SWAP1 POP PUSH2 0xECE JUMP JUMPDEST POP POP JUMP JUMPDEST PUSH1 0x1F DUP3 GT ISZERO PUSH2 0xF31 JUMPI PUSH2 0xF02 DUP2 PUSH2 0xDD1 JUMP JUMPDEST PUSH2 0xF0B DUP5 PUSH2 0xDE6 JUMP JUMPDEST DUP2 ADD PUSH1 0x20 DUP6 LT ISZERO PUSH2 0xF1A JUMPI DUP2 SWAP1 POP JUMPDEST PUSH2 0xF2E PUSH2 0xF26 DUP6 PUSH2 0xDE6 JUMP JUMPDEST DUP4 ADD DUP3 PUSH2 0xECD JUMP JUMPDEST POP POP JUMPDEST POP POP POP JUMP JUMPDEST PUSH1 0x0 DUP3 DUP3 SHR SWAP1 POP SWAP3 SWAP2 POP POP JUMP JUMPDEST PUSH1 0x0 PUSH2 0xF54 PUSH1 0x0 NOT DUP5 PUSH1 0x8 MUL PUSH2 0xF36 JUMP JUMPDEST NOT DUP1 DUP4 AND SWAP2 POP POP SWAP3 SWAP2 POP POP JUMP JUMPDEST PUSH1 0x0 PUSH2 0xF6D DUP4 DUP4 PUSH2 0xF43 JUMP JUMPDEST SWAP2 POP DUP3 PUSH1 0x2 MUL DUP3 OR SWAP1 POP SWAP3 SWAP2 POP POP JUMP JUMPDEST PUSH2 0xF86 DUP3 PUSH2 0xB63 JUMP JUMPDEST PUSH8 0xFFFFFFFFFFFFFFFF DUP2 GT ISZERO PUSH2 0xF9F JUMPI PUSH2 0xF9E PUSH2 0x7E9 JUMP JUMPDEST JUMPDEST PUSH2 0xFA9 DUP3 SLOAD PUSH2 0xDA0 JUMP JUMPDEST PUSH2 0xFB4 DUP3 DUP3 DUP6 PUSH2 0xEF0 JUMP JUMPDEST PUSH1 0x0 PUSH1 0x20 SWAP1 POP PUSH1 0x1F DUP4 GT PUSH1 0x1 DUP2 EQ PUSH2 0xFE7 JUMPI PUSH1 0x0 DUP5 ISZERO PUSH2 0xFD5 JUMPI DUP3 DUP8 ADD MLOAD SWAP1 POP JUMPDEST PUSH2 0xFDF DUP6 DUP3 PUSH2 0xF61 JUMP JUMPDEST DUP7 SSTORE POP PUSH2 0x1047 JUMP JUMPDEST PUSH1 0x1F NOT DUP5 AND PUSH2 0xFF5 DUP7 PUSH2 0xDD1 JUMP JUMPDEST PUSH1 0x0 JUMPDEST DUP3 DUP2 LT ISZERO PUSH2 0x101D JUMPI DUP5 DUP10 ADD MLOAD DUP3 SSTORE PUSH1 0x1 DUP3 ADD SWAP2 POP PUSH1 0x20 DUP6 ADD SWAP5 POP PUSH1 0x20 DUP2 ADD SWAP1 POP PUSH2 0xFF8 JUMP JUMPDEST DUP7 DUP4 LT ISZERO PUSH2 0x103A JUMPI DUP5 DUP10 ADD MLOAD PUSH2 0x1036 PUSH1 0x1F DUP10 AND DUP3 PUSH2 0xF43 JUMP JUMPDEST DUP4 SSTORE POP JUMPDEST PUSH1 0x1 PUSH1 0x2 DUP9 MUL ADD DUP9 SSTORE POP POP POP JUMPDEST POP POP POP POP POP POP JUMP JUMPDEST PUSH1 0x0 PUSH1 0xA0 DUP3 ADD SWAP1 POP DUP2 DUP2 SUB PUSH1 0x0 DUP4 ADD MSTORE PUSH2 0x1069 DUP2 DUP9 PUSH2 0xBA9 JUMP JUMPDEST SWAP1 POP DUP2 DUP2 SUB PUSH1 0x20 DUP4 ADD MSTORE PUSH2 0x107D DUP2 DUP8 PUSH2 0xBA9 JUMP JUMPDEST SWAP1 POP DUP2 DUP2 SUB PUSH1 0x40 DUP4 ADD MSTORE PUSH2 0x1091 DUP2 DUP7 PUSH2 0xBA9 JUMP JUMPDEST SWAP1 POP DUP2 DUP2 SUB PUSH1 0x60 DUP4 ADD MSTORE PUSH2 0x10A5 DUP2 DUP6 PUSH2 0xBA9 JUMP JUMPDEST SWAP1 POP DUP2 DUP2 SUB PUSH1 0x80 DUP4 ADD MSTORE PUSH2 0x10B9 DUP2 DUP5 PUSH2 0xBA9 JUMP JUMPDEST SWAP1 POP SWAP7 SWAP6 POP POP POP POP POP POP JUMP JUMPDEST PUSH1 0x0 PUSH1 0x40 DUP3 ADD SWAP1 POP DUP2 DUP2 SUB PUSH1 0x0 DUP4 ADD MSTORE PUSH2 0x10DF DUP2 DUP6 PUSH2 0xBA9 JUMP JUMPDEST SWAP1 POP PUSH2 0x10EE PUSH1 0x20 DUP4 ADD DUP5 PUSH2 0x967 JUMP JUMPDEST SWAP4 SWAP3 POP POP POP JUMP JUMPDEST PUSH32 0x4E487B7100000000000000000000000000000000000000000000000000000000 PUSH1 0x0 MSTORE PUSH1 0x11 PUSH1 0x4 MSTORE PUSH1 0x24 PUSH1 0x0 REVERT JUMPDEST PUSH1 0x0 PUSH2 0x112F DUP3 PUSH2 0x95D JUMP JUMPDEST SWAP2 POP PUSH2 0x113A DUP4 PUSH2 0x95D JUMP JUMPDEST SWAP3 POP DUP3 DUP3 ADD SWAP1 POP DUP1 DUP3 GT ISZERO PUSH2 0x1152 JUMPI PUSH2 0x1151 PUSH2 0x10F5 JUMP JUMPDEST JUMPDEST SWAP3 SWAP2 POP POP JUMP JUMPDEST PUSH1 0x0 PUSH1 0x20 DUP3 ADD SWAP1 POP DUP2 DUP2 SUB PUSH1 0x0 DUP4 ADD MSTORE PUSH2 0x1172 DUP2 DUP5 PUSH2 0xBA9 JUMP JUMPDEST SWAP1 POP SWAP3 SWAP2 POP POP JUMP INVALID LOG2 PUSH5 0x6970667358 0x22 SLT KECCAK256 0xDD STATICCALL 0xDD 0xB9 0xDD SWAP8 SWAP5 CALLDATASIZE PUSH32 0xCDA7A0C869C6108BEB375F865C19677D59A4A258B3A41364736F6C6343000814 STOP CALLER "},"methodIdentifiers":{"cases(string)":"df965829","logAuthorityApproval(string)":"b31c54ac","registerCase(string,string,string,string,string,uint256,string)":"c31dbffa","reputationScore(string)":"27b1619e","storeAuthenticityScore(string,uint256)":"d50fd07a","triggerReveal(string)":"ed72be6c","updateReputation(string,uint256)":"e4fe33e9"}}}}}